:020000040000FA
:020000001B28BB
:100008007E1480310B1A8B1C0B2874208B108B1AD2
:100018000B1D102873200B112100911D1928200099
:10002800911D19282120200091117E1009001C28FB
:10003800F401F5017E102000692824001512941A95
:100048000800141908001108F000F1017008F40004
:100058007108F500141C2E28110820008C002400BB
:10006800151608003630240095000130960030300F
:100078009200803094008B170B17200091112100FB
:100088009115080021008C018D018E0122008C0140
:100098008D018E0123008C018D018E01080018301E
:1000A80021008E003030F2000030F30036200800C6
:1000B80021009914190887396838990008004620E2
:1000C800073021008D00532008006E2020008E1775
:1000D80072201B285C206320532008007228080027
:0200E80008000E
:00000001FF
