:020000040000FA
:020000000D28C9
:100008007E1480318B1A0B1D0B2811240B117E10C6
:1000180009000E2820308400003085002430522545
:100028007E102000A22A003020000D1A0130F000B6
:100038000030F4000030F3000030F2000530F10029
:1000480025089021003020008D1A0130F000003082
:10005800F4000030F3000030F2000530F10026080B
:100068009021003020000D1B0130F0000030F4001A
:100078000030F3000030F2000530F100270890212D
:10008800003020008D1B0130F0000030F4000030FB
:10009800F3000030F2000530F1002808902100300C
:1000A80020008E1A0130F0000030F4000030F30018
:1000B8000030F2000530F1002908902120003308B3
:1000C800CD003208CC003808CB004B08F0002008DF
:1000D800CF24003A03197A2858250F3020004C06FF
:1000E800273003194D0603197A285E2520003908A0
:1000F800CB004B08F0002108CF24003A03198B28C5
:10010800582520004C084D0403198B28642520002D
:100118003A08CB004B08F0002208CF24003A031914
:10012800982858250030E42420003B08CB004B08D1
:10013800F0002308CF24003A0319A52858250130D8
:10014800E42420003C086A25013A031DC3285825E9
:1001580001302000B0070030B13D103030062730A4
:1001680003193106031DC628B001B101B201B3015C
:100178003308F8003208F70036082923C62820007B
:10018800B001B1012000CE014E08383E860087013B
:100198000108CB004E08203E860087014B088100ED
:1001A8000130CB004B08CE0705304E02031808007B
:1001B800C8282000CE004E08023E86008701011F95
:1001C80008004E08F02371082000C8007008C70016
:1001D8000130CC000030CD00CB014E0886008701ED
:1001E800010803394B0203180C290A30F0000030CB
:1001F800F1004D08F3004C08F20085247108200036
:10020800CD007008CC000130C4004408CB07F128A9
:100218000A30F8000030F9004D08F1004C08F000F1
:100228004808F3004708F20065237108FB007008CE
:10023800FA00992378082000C4004408C900220065
:100248000D08F0392000C4004408CA004E08860092
:10025800870101080339C400C40A0830C50000300A
:10026800C6003929460DC60CC50CC40B362920001A
:1002780045084A0422008D005929C0305629F93012
:100288005629A4305629B03056299930562992302B
:10029800562982305629F830562980305629903010
:1002A8005629EF3022008C00822920004908C4001A
:1002B800C5014508003A0319622955294408003A3E
:1002C80003194129013A03194329033A0319452916
:1002D800013A03194729073A03194929013A031929
:1002E8004B29033A03194D29013A03194F290F3AAB
:1002F80003195129013A03195329552920004E0899
:100308008600870101080339C400C40A01084406AD
:10031800FC39440681000800F90079088600870145
:10032800010801397006031DE5297908860087014F
:10033800010C013970060319E5297908860087013F
:10034800010CF500750C1F39F500F50AF50DF50DD2
:1003580001087506833975068100790886008701CA
:10036800010C890C1F39F500F601F701F801740832
:100378007802031DC92973087702031DC929720869
:100388007602031DC92971087502031C0800790843
:1003980086008701700801398110031D81147008D7
:1003A800031DD8290130D9290030F50079088600C5
:1003B8008701F50CF50C010875067F397506810073
:1003C8000800790886008701700801390110031DAB
:1003D8000114790886008701833081050800F6003A
:1003E8007108F2007208F3007008F2007208F40055
:1003F800240016141618FE292000911176082400EE
:1004080091002000911D052A91112400161F112A20
:10041800161516190D2AFB300800730891002000E4
:10042800911D132A91112400161F1F2A161516193B
:100438001B2AFE300800740891002000911D212A13
:1004480091112400161F2D2A16151619292AFD3078
:100458000800961496182E2A200091117608013E5D
:10046800240091002000911D362A91112400161FA6
:10047800422A161516193E2AFC3008009615141C37
:10048800432A1108F2007208F50096161616161A75
:100498004B2A161516194E2A750808002000C600A2
:1004A80002303602031C5D2AFF30F700FF30F800E7
:1004B8000800C701C8014608F900FA01F935FA0D24
:1004C8007908503EC40004307A3DC500CA010D3099
:1004D800F900FC30890B6E2AF90B6E2A20004A08B5
:1004E8004407F00045080318450AF100A030F3213D
:1004F800F90079082000C9004908F900FA014A08FA
:10050800FB000230FB35FF3E031D862A7B35890A36
:100518008F2AF935FA0D890B8D2A7908C7047A08CC
:10052800C8040130F9007908CA0702304A02031CDE
:100538006B2A4808F8004708F70008006F25C5230C
:100548000130F0000030F100A030F321013A031926
:10055800BF2AF9240D302000CF00FB30890BB22AC6
:10056800CF0BB22A00320130F0000030F100F20166
:10057800F20AA030E7222000D001D1012000510862
:10058800031DCA2A0130CF004F08D0070730500298
:10059800031CDD2A5108031DDD2AD101D10A3608C2
:1005A800522278082000B3007708B2003608E42405
:1005B800C22A172020003308F6003208F500520836
:1005C80035254D24C22AF4007108F3007308F5009C
:1005D8007008F3007308F600240016141618F22A9F
:1005E800200091117408240091002000911DF92A1F
:1005F80091112400161F042B1615161D0800012B37
:10060800750891002000911D062B91112400161FDA
:10061800112B1615161D08000E2B760891002000C8
:10062800911D132B91112400161F1E2B1615161D34
:1006380008001B2B720891002000911D202B91119E
:1006480024001615161D0800262B2000C6000230AF
:100658003602031808004608F900FA01F935FA0DC0
:100668007908503EC40004307A3DC500C7010D30FA
:10067800F900FC30890B3E2BF90B3E2B2000470874
:100688004407F00045080318450AF1007708F90007
:100698007908F200A030E7227808FA007708F90014
:1006A8007A08F900FA017908F7007A08F8000130A9
:1006B800F90079082000C70702304702031808002C
:1006C8003B2BF501F601700871040319942BF7010F
:1006D800F70AF11B792B0130F035F10D890B702BDE
:1006E8000130F4007408F7076D2B0130F535F60D6D
:1006F800890B7A2B71087302031D842B7008720210
:10070800031C8B2B7008F2027108F33B751401303F
:10071800F136F00C890B8C2B0130F702031D792B75
:100728007608F1007508F0000800780879040319C4
:10073800C02BFD01FD0AF91BAB2B0130F835F90D73
:10074800890BA22B0130FC007C08FD079F2B790840
:100758007B02031DB12B78087A02031CB72B78089B
:10076800FA027908FB3B0130F936F80C890BB82BF3
:100778000130FD02031DAB2B7B08F9007A08F80055
:1007880008003830F20072082000A5003930F20065
:100798007208A6003A30F2007208A7003B30F20057
:1007A8007208A8003C30F2007208A900250830241D
:1007B800200026083024200027083024200028089C
:1007C80030242000290830244130F200720820002B
:1007D800D2005208B9240800F700F501F601770A9B
:1007E800860087010108F200F3017208F504730816
:1007F800F6047708023E8600870101083F39F200B7
:10080800F3017208F300F2017208F5047308F604A4
:100818007608F1007508F000080001302000AC07E8
:100828000030AD3D39302D02383003192C02031C3D
:10083800202CAC01AD01371437150130AA07003060
:10084800AB3D05302B02B83003192A02031C0800FF
:10085800AA01AB01B7150800F100710886008701ED
:100868008114710886008701010C0139F0007108B4
:100878008600870101087006FE397006810071083C
:1008880086008701833081057108860087018113FE
:1008980008002000371C542C52082225200037104D
:1008A800B718431B5B2C52083D252000B710371D95
:1008B800612C5208DD2020003711B71D0800431FA6
:1008C800080069242000B711080020003408360603
:1008D800031D762C33082F06031D742C32082E06B0
:1008E800031908003608FB007B08B4003308AF0082
:1008F8003208AE003308F8003208F700360829231A
:100908000800F401F501701C8D2C7208F4077308B7
:10091800F53D0130F235F30D890B8E2C0130F1369F
:10092800F00C890B932C70087104031D872C750833
:10093800F1007408F0000800F4007008F200740A6E
:1009480086008701720881007108F3007008F200C0
:100958007308F200F3017408023E8600870101085B
:100968007206C039720681000800F000700886001F
:100978008701FC308105700A8600870181017008B3
:10098800023E86008701C03081057008023E86005D
:10099800870101170800F200F301F01FD52C013080
:1009A800D62C0030F100F21FDB2C0130DC2C00309B
:1009B8007106031DF01FE22CF301F30A7308080007
:1009C800FD0020003308F8003208F7003608292314
:1009D8007D08FC007C082000B60036085222780802
:1009E8002000B3007708B2000800FC011230F700BD
:1009F8000030F8007C0829230130FB007B08FC0745
:100A080002307C0203180800FA2C21008C018D01A9
:100A18008E0122008C018D018E0123008C018D0135
:100A28008E010800210095111508F8390438950041
:100A3800951215128B16200095010800F000700819
:100A4800023E860087010113FF3022008C00080057
:100A580021008E150E1613302400920028309500C0
:100A68000800F7007608F1007508F0007708A02460
:100A78000800F0007008023E860087010117080090
:100A880021000D168D160D178D178E1608002100E2
:100A98009914190887397038990008006400800192
:100AA8000131890B532D00342000AC01AD01371002
:100AB800B714080001302000B2070030B33D080029
:100AC80001302000B2020030B33B0800F000700D86
:100AD800700D013908004B2574252C257725080051
:0C0AE80009254425080016258B1708007E
:020000040001F9
:04000E00E4FFFFDF2D
:00000001FF
