:020000040000FA
:020000000E28C8
:100008007E1480312000911D0C285220200091116F
:100018007E1009000F28F4017E102000132821000B
:10002800190887396038990023008C0121008C0158
:1000380022008C0123008D0121008D0122000D1466
:1000480023008E0121008E150E16303024009200F8
:10005800803094003630950096018B170B172000DE
:1000680091112100911537282000911124001108C1
:10007800151622008D152000911D3F289111220090
:100088000D162400141C45281108F0007008F20011
:1000980022008D16240015167208080022000D0C87
:1000A8000139F3000130F306F30D0D087306FD392D
:1000B80073068D003820F3007308F40074082200DA
:0400C8008C000800A0
:020000040001F9
:04000E00E4FFFFDF2D
:00000001FF
