:020000040000FA
:08000000803102288731FD2F39
:100F72001630210097000800383021009900220025
:100F8200960108008731E22787318731BD278731F3
:100F92008731B92708008731C32787310310220020
:100FA2000E1C0314031CD82F22000E14DA2F220069
:100FB2000E105230F0002A30890BDD2FF00BDD2F9E
:100FC200CF2F22008C018D0101308E003F30210095
:100FD2008C00F0308D00FE308E00CE3023008E006B
:100FE20030308D0017308C0024008D018C012100DF
:0E0FF200951722009D01080020008731CC2FAA
:020000040001F9
:04000E00E4FFFFFF0D
:00000001FF
