:020000040000FA
:020000001D28B9
:100008007E1480310B1A8B1C0B2882208B108B1AC4
:100018000B1D1B28031022008C1D0314031C17281A
:1000280022008C15192822008C1170200B117E10CB
:1000380009001E28F001F101F2017E1020008E282F
:10004800210099141908873938389900FF308C0035
:10005800FF308D00FF308E0022008C018D018E0153
:1000680023008C018D018E01F13021008C008B1052
:1000780015130B168B1620009501083021009500EA
:100088008B1708007108031D54280130F30073080A
:10009800F0070A307006031D080022008C100800C3
:1000A8007108013AF3007308F100F00108007103C8
:1000B800031D69280130F3007308F0070A30700641
:1000C800031D080022008C1408007108013AF3008F
:1000D8007308F100F00108000130F4007408F20719
:1000E800720A031D08000B11F20120000C1A7E2869
:1000F8005B2008000C1E08004620080003102200A0
:100108000C1D0314031C8B2822000C150800220068
:0C0118000C110800242091208F28080002
:020000040001F9
:04000E00E4FFFFDF2D
:00000001FF
