:020000040000FA
:020000001228C4
:100008007E1480310B1A8B1C0B285D218B108B1AE8
:100018000B1D102860210B117E1009001328622186
:10002800FD00FB01FC01A001A101A201A301A401A3
:10003800A501A601A701A801A9017E102000572942
:10004800F601F31F2E28F209F309F20A0319F30A3D
:10005800F601F60AF11F3528F009F109F00A03192B
:10006800F10A7008710403195C28F501F50AF11BFF
:1000780047280130F035F10D890B3E280130F40096
:100088007408F5073B2871087302031D4D28700892
:100098007202031C53287008F2027108F33B013006
:1000A800F136F00C890B54280130F502031D47285E
:1000B800760803196428F209F309F20A0319F30A06
:1000C8007308F1007208F0000800F3007008223E7F
:1000D800F1007108F40073087B05F10071087306DC
:1000E800031D9B280130F100740886008701710800
:1000F80081077408860087010A300106031D08007D
:1001080022000C08031D8A2801308B280030F100DA
:100118007108F20073087204F1007108F2007208A5
:10012800031D98280130992800308C0008007B08AE
:10013800013AF1007108FB0074088600870181010B
:100148000800F600F801F80AF70120002D087805E4
:10015800F50075087806031DC52876087805F500AA
:1001680075087806031DBF287708F5007508F000A4
:1001780078086920C5287708F5007508F000780820
:10018800D2207835F5007508F8000130F5007508BB
:10019800F7070830770203180800A928F20070084A
:1001A800223EF1007108F30072087B05F100710826
:1001B8007206031DE9287B08013AF1007108FB006B
:1001C800730886008701810108000130F100730877
:1001D80086008701710881077308860087010A3045
:1001E8000106031D0800720822000C048C00080098
:1001F8000130F9007908FC073E217F30F00000301B
:10020800F1007C08F900FA017908F2007A08F30095
:1002180024207C0A031D0800FC01080021008C0131
:100228008D018E0122008C018D018E0123008C012D
:100238008D018E01080021009515F830950595125D
:1002480015128B1620009501080012210730210095
:100258008D000D08302108002000AC002C08AA00F1
:100268002A08AD0008002100991419088739583860
:10027800990008007D08031D43295A2108005321CD
:1002880008002100951315138B100B160800372151
:1002980029214F21080045211F218B170800200024
:1002A8000D08A52008004B2163215829FD01FB01F9
:1002B8000800FD01FD0A0800FC20080001340800C0
:020000040001F9
:04000E00E4FFFFDF2D
:00000001FF
