:020000040000FA
:020000000D28C9
:100008007E1480318B1A0B1D0B28FF230B117E10D9
:1000180009000E2820308400003085002530322564
:100028007E102000332A2000CF004F08023E8600B1
:100038008701011F08004F08DE2371082000C9004E
:100048007008C8000130CD000030CE00CC014F0848
:1000580086008701010803394C02031846280A3034
:10006800F0000030F1004E08F3004D08F20057246C
:1000780071082000CE007008CD000130C500450889
:10008800CC072B280A30F8000030F9004E08F100A0
:100098004D08F0004908F3004808F200532371089E
:1000A800FB007008FA00872378082000C50045087F
:1000B800CA0022000D08F0392000C5004508CB0011
:1000C8004F088600870101080339C500C50A0830B2
:1000D800C6000030C7007328470DC70CC60CC50BF7
:1000E8007028200046084B0422008D009328C03059
:1000F8009028F9309028A4309028B0309028993072
:1001080090289230902882309028F83090288030BB
:10011800902890309028EF3022008C00BC282000D6
:100128004A08C500C6014608003A03199C288F28CA
:100138004508003A03197B28013A03197D28033A38
:1001480003197F28013A03198128073A03198328DC
:10015800013A03198528033A03198728013A031934
:1001680089280F3A03198B28013A03198D288F28FB
:1001780020004F088600870101080339C500C50A19
:1001880001084506FC3945068100080000302000BA
:100198000D1A0130F0000030F4000030F300003098
:1001A800F2000530F10025087121003020008D1A79
:1001B8000130F0000030F4000030F3000030F200AD
:1001C8000530F1002608712107294B30D300013092
:1001D800D4000229FF280229FF280229DC30F92847
:1001E800FF280229FF2802291530D3000030D40047
:1001F8003F29FF28022922008E173F2922008E134B
:100208003F29B5013F2920003508FA00FB017B088A
:10021800003A0319102905297A08003A0319E92830
:10022800013A0319EE28033A0319EF28013A031992
:10023800F028073A0319F128013A0319F228033A7A
:100248000319F428013A0319F5280F3A0319F62877
:10025800013A0319F728033A0319F828013A031950
:10026800FD28073A0319FE28013A0319FF28033A23
:1002780003190229052920003908FA007A08F00034
:100288002008B924003A03194E290130FA007A08E7
:100298002000B50720003A08FA007A08F000210883
:1002A800B924003A03195B2901302000B502FC018A
:1002B8007C08393E860087010108FA007C08203E48
:1002C800860087017A0881000130FA007A08FC0765
:1002D80005307C02031808005C29F90079088600BB
:1002E8008701010801397006031DC62979088600AF
:1002F8008701010C013970060319C629790886009F
:100308008701010CF500750C1F39F500F50AF50D8C
:10031800F50D010875068339750681007908860090
:100328008701010C890C1F39F500F601F701F80166
:1003380074087802031DAA2973087702031DAA29E5
:1003480072087602031DAA2971087502031C0800A9
:10035800790886008701700801398110031D81140E
:100368007008031DB9290130BA290030F500790851
:1003780086008701F50CF50C010875067F397506AE
:10038800810008007908860087017008013901108A
:10039800031D011479088600870183308105080050
:1003A800F6007108F2007208F3007008F200720893
:1003B800F400240016141618DF292000911176087D
:1003C800240091002000911DE62991112400161F98
:1003D800F22916151619EE29FB300800730891004A
:1003E8002000911DF42991112400161F002A1615CA
:1003F8001619FC29FE300800740891002000911D90
:10040800022A91112400161F0E2A161516190A2AF7
:10041800FD300800961496180F2A200091117608CE
:10042800013E240091002000911D172A91112400FB
:10043800161F232A161516191F2AFC3008009615B0
:10044800141C242A1108F2007208F50096161616D4
:10045800161A2C2A161516192F2A75080800382579
:10046800B32322008E1733302000D3000530D40088
:100478005408F6005308F500550815250130F0001A
:100488000030F100A030D421013A03195D2AE32499
:100498000D302000D000FB30890B502AD00B502A99
:1004A80000320130F0000030F100F201F20AA03011
:1004B800D5222000D101D20120005208031D682A4C
:1004C8000130D0005008D10707305102031C7B2AA5
:1004D8005208031D7B2AD201D20A370885227808E0
:1004E8002000AF007708AE003708CE24602ACA2063
:1004F80020005408F6005308F500550815258B24EC
:10050800602A2000C70002303702031C902AFF30FF
:10051800F700FF30F8000800C801C9014708F900D2
:10052800FA01F935FA0D7908503EC50004307A3DD4
:10053800C600CB010D30F900FC30890BA12AF90B5C
:10054800A12A20004B084507F00046080318460A70
:10055800F100A030D421F90079082000CA004A0827
:10056800F900FA014B08FB000230FB35FF3E031D82
:10057800B92A7B35890AC22AF935FA0D890BC02AAE
:100588007908C8047A08C9040130F9007908CB074A
:1005980002304B02031C9E2A4908F8004808F7005D
:1005A8000800F4007108F3007308F5007008F30000
:1005B8007308F600240016141618E02A200091117A
:1005C8007408240091002000911DE72A911124004D
:1005D800161FF22A1615161D0800EF2A7508910035
:1005E8002000911DF42A91112400161FFF2A1615C8
:1005F800161D0800FC2A760891002000911D012B89
:1006080091112400161F0C2B1615161D0800092B16
:10061800720891002000911D0E2B911124001615CF
:10062800161D0800142B2000C700023037020318DB
:1006380008004708F900FA01F935FA0D7908503E23
:10064800C50004307A3DC600C8010D30F900FC3001
:10065800890B2C2BF90B2C2B200048084507F000A0
:1006680046080318460AF1007708F9007908F200ED
:10067800A030D5227808FA007708F9007A08F9003E
:10068800FA017908F7007A08F8000130F9007908CA
:100698002000C8070230480203180800292BF5017A
:1006A800F601700871040319822BF701F70AF11B90
:1006B800672B0130F035F10D890B5E2B0130F4000A
:1006C8007408F7075B2B0130F535F60D890B682B9D
:1006D80071087302031D722B70087202031C792BB8
:1006E8007008F2027108F33B75140130F136F00C12
:1006F800890B7A2B0130F702031D672B7608F1006E
:100708007508F0000800780879040319AE2BFD017C
:10071800FD0AF91B992B0130F835F90D890B902B3F
:100728000130FC007C08FD078D2B79087B02031D36
:100738009F2B78087A02031CA52B7808FA027908FF
:10074800FB3B0130F936F80C890BA62B0130FD0272
:10075800031D992B7B08F9007A08F8000800393046
:10076800F20072082000A5003A30F2007208A600D4
:100778003B30F2007208A7003C30F2007208A80073
:100788003D30F2007208A90025081E242000260822
:100798001E24200027081E24200028081E242000CC
:1007A80029081E244230F20072082000D50055089E
:1007B800A3240800F700F501F601770A86008701EF
:1007C8000108F200F3017208F5047308F6047708CB
:1007D800023E8600870101083F39F200F3017208E2
:1007E800F300F2017208F5047308F6047608F100C4
:1007F8007508F000080001302000B2070030B33D52
:1008080039303302383003193202031C0E2CB2017E
:10081800B301381438150130B0070030B13D053048
:100828003102B83003193002031C0800B001B101CD
:10083800B8150800F1007108860087018114710855
:1008480086008701010C0139F000710886008701D4
:1008580001087006FE39700681007108860087015C
:100868008330810571088600870181130800200004
:1008780034083706031D482C2F082B06031D462C69
:100888002E082A06031908003708FB007B08B40065
:100898002F08AB002E08AA002F08F8002E08F70032
:1008A800370817230800F401F501701C5F2C720843
:1008B800F4077308F53D0130F235F30D890B602C10
:1008C8000130F136F00C890B652C70087104031D9A
:1008D800592C7508F1007408F0000800F40070083D
:1008E800F200740A86008701720881007108F3001B
:1008F8007008F2007308F200F3017408023E8600E3
:10090800870101087206C0397206810008002000BC
:1009180038183810B818441B952C55081D25200088
:10092800B810381D9B2C5508172020003811B81D09
:100938000800441F08003B242000B8110800F000FC
:10094800700886008701FC308105700A86008701DF
:1009580081017008023E86008701C0308105700859
:10096800023E8600870101170800F200F301F01F1C
:10097800BF2C0130C02C0030F100F21FC52C013013
:10098800C62C00307106031DF01FCC2CF301F30AAE
:1009980073080800FD0020002F08F8002E08F70053
:1009A800370817237D08FC007C082000B7003708AB
:1009B800852278082000AF007708AE000800FC0107
:1009C8001230F7000030F8007C0817230130FB00D4
:1009D8007B08FC0702307C0203180800E42C210085
:1009E8008C018D018E0122008C018D018E01230066
:1009F8008C018D018E010800210095111508F83928
:100A080004389500951215128B16200095010800E0
:100A180021008E150E161330240092002830950000
:100A28000800F7007608F1007508F00077087224CE
:100A38000800F0007008023E8600870101170800D0
:100A480021000D168D160D178D178E160800210022
:100A580099141908873970389900080064008001D2
:100A68000131890B332D00342B253D250C254025DC
:0E0A78000800F3242425080000258B17080031
:020000040001F9
:04000E00E4FFFFDF2D
:00000001FF
