:020000040000FA
:020000001928BD
:100008007E1480310B1F17282100921D1028200014
:10001800921D1028672217282100911D17282000FB
:10002800911D172829207E1009001A28F001F101D6
:10003800F201F301F401F50120308400003085005D
:1000480013304E227E102000B52920009111240083
:10005800951F33299513F3017008023E8600870126
:100068000108860087018101810AF001080020004B
:10007800A21808002108F8007808F0002108860076
:1000880087010108F8007808F20021088600870136
:10009800413FF1000330F8007808A1072108333AFE
:1000A800031D5A283030F8007808A10022102108D2
:1000B80020060319A214240016140230F800780848
:1000C800F3000800E528161F71280130F8007808A9
:1000D8002000A4070430272208007508F9007408D6
:1000E800F800F936F80C78089100741C80280B3059
:1000F800F8007808F30008000330F8007808F300E7
:100108000800161F8F280130F80078082000A4077F
:1001180004302722080096147508F9007408F800BE
:100128007908F800F90106307805FA0000307905F9
:10013800FB00F0307A04F40000307B04F5007414FE
:100148002000A501A50A6128200025030319BD2860
:10015800710886008701403FF400413FF5007108AF
:1001680086008701433FA700710886008701423F48
:10017800A600740824009100741C80280530F8003B
:100188007808F3000800161FD3280130F800780813
:100198002000A40724001613053027220800013088
:1001A8002000A602260A031DE7280430F800780874
:1001B800F1070130F202031DE4280030272208006D
:1001C8002400961461282708860087010108240066
:1001D80091000130F80078082000A7070800161FD2
:1001E800FF280130F80078082000A40704302722EF
:1001F80024001613080096150830F8007808F30054
:1002080008000830F8007808F3009615080011086F
:10021800F80020002708860087017808810001304F
:10022800F8007808A7070130A6020319222924003C
:1002380096120630F8007808F3002529240096164F
:100248003E2224001616080000302722080001303C
:10025800F80078082000A407063027220800730851
:10026800F800F9017908003A03193B292B29780885
:10027800003A03193B28013A03196628033A03197F
:10028800A828013A0319C728073A03192829013A67
:100298000319F328033A03190529013A03192829F0
:1002A8000F3A03190B29023A03196728013A03196F
:1002B80085282B2908002000B60022188A2933082F
:1002C800B500200A86008701350881003608B50088
:1002D800200886008701350881003408B500200809
:1002E800023E86008701350881000330B5003508D5
:1002F800A0072008333A031D85293030B50035089A
:10030800A000A21021082006031922143408860030
:10031800870102300106031D0800632220009115A1
:1003280008002000B9003608B8003508B700B7350E
:10033800B80D3908860087013708C03F3808C13F23
:100348003408B7003908023E860087013708810063
:100358003308B7003908033E860087013708810053
:1003680008005A2243302000C1004108C400200080
:100378004408860087010108013EC1004408860040
:10038800870141088100BA01BA0A0830BB00003071
:10039800BC004208C1004108BD004408D421BB2963
:1003A8002000C000221808004008BE003E08B30024
:1003B8003A08BF003F08B4003C08B6003B08B50047
:1003C8002C3095212C302000BE003E08B3003D089B
:1003D800BF003F08B40001305F2108003030200022
:1003E800B3003308A1003030B3003308A000A214D2
:1003F8002210A40180302400940028309500970131
:10040800033092002000911192112100911592154C
:10041800080022008C018D018E01E03021008C0043
:10042800FF308D00FF308E00E43023008E003F3017
:100438008D002F308C00240090018D01210095172C
:1004480022009D010800F700240016157008023EDE
:1004580086008701010803193C2A7708F60070080E
:10046800023E860087010108860087017608810020
:10047800F30108000430F6007608F1070130F202B3
:10048800031D4B2A0430F6007608F3000800F30138
:10049800F30A0800640080010131890B4F2A0034F7
:1004A8006830210099002200960108000D2254228C
:1004B8005F22F22108001630210097000800730817
:0C04C80003190800632A200092110800AC
:020000040001F9
:04000E00E4FFFFFF0D
:00000001FF
