:020000040000FA
:020000001128C5
:100008007E1480310B1F0F282100911D0F2820001E
:10001800911D0F28B9207E10090012281D21F70014
:1000280079308400803085002030860000308700D9
:1000380040300421F501F6017E1020001529F20058
:100048006228F501F50A08007708F0007008F60044
:100058004F287708F0007608203E86008701700850
:1000680081000130F0007008F60740307602031C6A
:100078004F28F6014F287508F000F1017108003A81
:10008800031947282D287008003A03192D28013A2A
:10009800031928282D28F50108007608203E860037
:1000A80087010108240091000130F0007008F6076C
:1000B80040307602031C0800F60108007208F000C0
:1000C800F1017108003A03196A2878287008003A83
:1000D80003192528013A03195128033A03193F281F
:1000E800013A0319782878280800003401340234CA
:1000F80003340434053406340734083409340A3424
:100108000B340C340D340E340F34103411341234D3
:1001180013341434153416341734183419341A3483
:100128001B341C341D341E341F3420342134223433
:1001380023342434253426342734283429342A34E3
:100148002B342C342D342E342F3430343134323493
:1001580033343434353436343734383439343A3443
:100168003B343C343D343E343F342000911124006C
:100178001108F3007308F400141DCC28941A161FF4
:10018800CA28740822008C000330D5280130D528ED
:10019800941AD0280030D5287408F3007308F700A3
:1001A8000230232024001516080022008C018D013E
:1001B8008E01C03021008C00FF308D00FF308E0092
:1001C800E43023008E003F308D002F308C00240057
:1001D80090018D012100951722009D0108008030B3
:1001E80024009400263095000130960097017F3056
:1001F8009300083092002000911121009115080009
:10020800FE0012001E00FE0B052900346830210094
:100218009900220096010800D9200A211921F3200B
:10022800080010218B170B1718291630210097008A
:040238000800553431
:020000040001F9
:04000E00E4FFFFFF0D
:00000001FF
