:020000040000FA
:100000008A110A127B28102876281F2826282D28D6
:0C001000342838283C28412850285D285E
:04001C000034003478
:100020008A110A1283120313A2000D30A100A0014D
:10003000A00B1828A10B1828A20B15280034831236
:1000400003138A110A1205181F28003483120313A0
:100050008A110A12051C2628003483120313710822
:10006000083AF10086000034831203138615003429
:1000700083120313861100348316031360308F003C
:1000800000348316031303308500003086000030EF
:100090008700831203130030850086008700003438
:1000A00083160317023088008316031380309F00E5
:1000B0008312031349309F000034831603130C1777
:1000C000831203130C130B178B17013004208312B8
:1000D00003139F149F186A28831203131E08F3004A
:1000E000831603131E08F40087000034F20000009A
:0600F000F20B7728080066
:0A00F6000A200B200C200D20F00161
:10010000F1018A110A1205208A110A1207208A11A8
:100110000A12013003208A110A1206208A110A12DB
:10012000013003208A110A1281280000000000001B
:04013000000095280E
:02400E00F72C8D
:02401000FF3F70
:00000001FF
