:020000040000FA
:020000001128C5
:100008007E1480312100911D0F282000911D0F289A
:100018001720200091117E1009001228F401F50123
:100028007E1020005F2824001512941A0800141965
:1000380008001108F000F1017008F4007108F500DB
:10004800141C2428110820008C0024001516080010
:100058003630240095000130960030309200803010
:1000680094008B178B170B17200091112100911505
:10007800080021008C018D018E0122008C018D0168
:100088008E0123008C018D018E010800183021009B
:100098008E003030F2000030F3002C2008002100E0
:1000A8009914190887396838990008003D200730E5
:1000B80021008D000800632020008E17622853203D
:0600C8005A204A20080046
:00000001FF
