:020000040000FA
:020000001F28B7
:100008007E1480312100911D1D282000911D1D287E
:1000180022000E0D0E0D0139F2000130F206F20C2D
:10002800F20C0E0872067F3972068E0096202000A8
:1000380091117E1009002028F501F601F701F80159
:100048007E1020008E2824001512151B2D28951FC0
:1000580037281108F000F1017008F7007108F8005E
:10006800151395131516941E141949281108F00034
:10007800F1017008F7007108F800141C41281108F4
:1000880022008C00240015160800941A0800141D7C
:1000980008001108F000F1017008F7007108F80075
:1000A8001410AA3091001516141C08005828363070
:1000B8002400950001309600303092008030940082
:1000C8008B178B170B172000911121009115080031
:1000D80021008C018D018E0122008C018D018E0181
:1000E80023008C018D018E010800183021008E003C
:1000F8003030F3000030F4005B2008002100991430
:10010800190887396838990008006C2007302100E1
:100118008D000800922022000E1791288220892045
:080128007920080027200800DF
:00000001FF
