:020000040000FA
:040000000128FB2FA9
:100E94002100190887396038990023008C0121004A
:100EA4008C0122008C0123008D0121008D01220080
:100EB4000D1423008E0121000E1022000D080139AB
:100EC400FC000130FC060D087C06FE397C068D0012
:100ED4009B27FC007C082000A2002203031D7D2F19
:100EE40022000D0C0139FC000130FC06FC0D0D083C
:100EF4007C06FD398A2F22000D0CFC007C0C013984
:100F0400FC000130FC06FC0DFC0D0D087C06FB39D1
:100F14007C068D00200020088C000330FD008A3000
:100F2400FC005630890B942FFC0B942FFD0B942F4F
:100F34005F2FFB01FB017B08733E86008701810163
:100F44000130F0007008FB0705307B02031C9D2F65
:100F54008030F0007008FA00F80121000E10220021
:100F64000E101430F0007A30890BB62FF00BB62F28
:100F740022000E1421000E1420000E1CBE2F0E1889
:100F8400C12F2830F0007008F9000E18C72F0E1C6E
:100F9400C92F0530890BCC2F003220000E1CDA2F0C
:100FA4007A08F0007808733E86008701700881048F
:100FB4000310FA0C7A08031DE72F8030F000700844
:100FC400FA000130F0007008F8070130F9027908DE
:100FD400031DC72F21000E1422000E147308F00005
:100FE40070082000A1007508F0007008A00001300E
:0C0FF40008002000A001A10120004A2FED
:00000001FF
