:020000040000FA
:040000000128FE2FA6
:100F3200BB27240016140800BB272400161508003E
:100F4200B427AF27AA270800BB2770082400910006
:100F52000800183021008E00C3270800D827073068
:100F620021008D000800210099141908873968387A
:100F72009900080024001419BB2F16081F39031901
:100F82000800BB2F283024009500960109309200FA
:100F92009401080099273030F0000030F100A527B5
:100FA2007308F1007208F000A5279D2708002100B0
:100FB2008C018D018E0122008C018D018E01230096
:100FC2008C018D018E010800A12722008E17F501E8
:100FD200F6018230F400DE30890BED2FF40BED2F99
:100FE2000130F5070030F63D7608F3007508F2008F
:0E0FF200CB27750822008C00EA2F2000E52F87
:00000001FF
