:020000040000FA
:020000001228C4
:100008007E1480310B1A8B1C0B28D7208B108B1A6F
:100018000B1D10280B1180207E1009001328F901F0
:10002800FA01FB017E102000F828F601F31F2328AF
:10003800F209F309F20A0319F30AF601F60AF11FA5
:100048002A28F009F109F00A0319F10A7008710465
:1000580003195128F501F50AF11B3C280130F03548
:10006800F10D890B33280130F4007408F5073028A6
:1000780071087302031D422870087202031C482885
:100088007008F2027108F33B0130F136F00C890B6D
:1000980049280130F502031D3C2876080319592820
:1000A800F209F309F20A0319F30A7308F100720856
:1000B800F000080021009914190887393838990088
:1000C800FF308C00FF308D00FF308E0022008C0145
:1000D8008D018E0123008C018D018E01F1302100EC
:1000E8008C008B1015130B168B1620009501083009
:1000F800210095008B1708000130F7007708F907F1
:1001080079080339031D8928E3207F30F000003087
:10011800F1007908F700F8017708F2007808F30091
:10012800192070087104031D9A28D720790A031D25
:100138000800CB20F901EF2008007B08031DAF2839
:100148000130F0007008FA070A307A06031D08002B
:1001580022008C1008007B08013AF0007008FB00B0
:10016800FA0108007B03031DC4280130F000700861
:10017800FA070A307A06031D080022008C140800CA
:100188007B08013AF0007008FB00FA010800031030
:1001980022008C1D0314031CD42822008C1508008F
:1001A80022008C110800031022000C1D0314031CEC
:1001B800E02822000C15080022000C11080003108A
:1001C80022008C1C0314031CEC2822008C14080049
:1001D80022008C10080020000C1AF428B620080011
:1001E8000C1E0800A12008005E20FB20F92808004A
:020000040001F9
:04000E00E4FFFFDF2D
:00000001FF
