:020000040000FA
:040000000128FD2FA7
:100E4400F300240016141618252F2000911173089E
:100E5400240091002000911D2C2F91112400161FB5
:100E6400372F1615161D0800342F70089100200026
:100E7400911D392F91112400161F442F1615161D8C
:100E84000800412F710891002000911D462F9111F7
:100E94002400161F512F1615161D08004E2F720818
:100EA40091002000911D532F911124001615161D39
:100EB4000800592F21001908873960389900230048
:100EC4008C0121008C0122008C0123008D01210062
:100ED4008D0122000D1423008E0121008E150E16A3
:100EE400043024009200283095001230F500750873
:100EF400F0003430F6007608F100AA30F7007708E5
:100F0400F200A03022270130F8000030F90001304F
:100F1400F8070030F93D7908803AF5008030750211
:100F2400031D962FA5307802031C892F1230F5007B
:100F34007508F0003430F6007608F100A030A927D7
:100F4400F7007708FA007A0822008C000128F400E0
:100F5400240016141618AC2F2000911174082400D4
:100F640091002000911DB32F91112400161FBF2F53
:100F740016151619BB2FFF300800700891002000C9
:100F8400911DC12F91112400161FCC2F1615161D6B
:100F9400BD2FC92F710891002000911DCE2F9111F2
:100FA4002400161FD92F1615161DBD2FD62F9614E3
:100FB4009618DA2F200091117408013E2400910044
:100FC4002000911DE22F91112400161FED2F1615FC
:100FD400161DBD2FEA2F9615141CEE2F1108F200D2
:100FE4007208F30096161616161AF62F1615161909
:0C0FF400F92F73080800FA0120005C2FA0
:020000040001F9
:04000E00E4FFFFDF2D
:00000001FF
